{
  "_format": "hh-sol-artifact-1",
  "contractName": "LoanContract",
  "sourceName": "contracts/LoanContract.sol",
  "abi": [
    {
      "inputs": [
        {
          "internalType": "address",
          "name": "_borrower",
          "type": "address"
        },
        {
          "internalType": "address",
          "name": "_lender",
          "type": "address"
        },
        {
          "internalType": "address",
          "name": "_stablecoinAddress",
          "type": "address"
        },
        {
          "internalType": "address",
          "name": "_reputationAddress",
          "type": "address"
        },
        {
          "internalType": "uint256",
          "name": "_principal",
          "type": "uint256"
        },
        {
          "internalType": "uint256",
          "name": "_interestRate",
          "type": "uint256"
        },
        {
          "internalType": "uint256",
          "name": "_term",
          "type": "uint256"
        }
      ],
      "stateMutability": "nonpayable",
      "type": "constructor"
    },
    {
      "anonymous": false,
      "inputs": [
        {
          "indexed": true,
          "internalType": "address",
          "name": "lender",
          "type": "address"
        }
      ],
      "name": "DefaultClaimed",
      "type": "event"
    },
    {
      "anonymous": false,
      "inputs": [
        {
          "indexed": true,
          "internalType": "address",
          "name": "borrower",
          "type": "address"
        },
        {
          "indexed": false,
          "internalType": "uint256",
          "name": "amount",
          "type": "uint256"
        }
      ],
      "name": "Disbursed",
      "type": "event"
    },
    {
      "anonymous": false,
      "inputs": [
        {
          "indexed": true,
          "internalType": "address",
          "name": "borrower",
          "type": "address"
        },
        {
          "indexed": false,
          "internalType": "uint256",
          "name": "amount",
          "type": "uint256"
        }
      ],
      "name": "Repaid",
      "type": "event"
    },
    {
      "inputs": [],
      "name": "amountRepaid",
      "outputs": [
        {
          "internalType": "uint256",
          "name": "",
          "type": "uint256"
        }
      ],
      "stateMutability": "view",
      "type": "function"
    },
    {
      "inputs": [],
      "name": "borrower",
      "outputs": [
        {
          "internalType": "address",
          "name": "",
          "type": "address"
        }
      ],
      "stateMutability": "view",
      "type": "function"
    },
    {
      "inputs": [],
      "name": "claimDefault",
      "outputs": [],
      "stateMutability": "nonpayable",
      "type": "function"
    },
    {
      "inputs": [],
      "name": "creationDate",
      "outputs": [
        {
          "internalType": "uint256",
          "name": "",
          "type": "uint256"
        }
      ],
      "stateMutability": "view",
      "type": "function"
    },
    {
      "inputs": [],
      "name": "disburse",
      "outputs": [],
      "stateMutability": "nonpayable",
      "type": "function"
    },
    {
      "inputs": [],
      "name": "disbursed",
      "outputs": [
        {
          "internalType": "bool",
          "name": "",
          "type": "bool"
        }
      ],
      "stateMutability": "view",
      "type": "function"
    },
    {
      "inputs": [],
      "name": "interestRate",
      "outputs": [
        {
          "internalType": "uint256",
          "name": "",
          "type": "uint256"
        }
      ],
      "stateMutability": "view",
      "type": "function"
    },
    {
      "inputs": [],
      "name": "lender",
      "outputs": [
        {
          "internalType": "address",
          "name": "",
          "type": "address"
        }
      ],
      "stateMutability": "view",
      "type": "function"
    },
    {
      "inputs": [],
      "name": "principal",
      "outputs": [
        {
          "internalType": "uint256",
          "name": "",
          "type": "uint256"
        }
      ],
      "stateMutability": "view",
      "type": "function"
    },
    {
      "inputs": [],
      "name": "repay",
      "outputs": [],
      "stateMutability": "nonpayable",
      "type": "function"
    },
    {
      "inputs": [],
      "name": "reputationContract",
      "outputs": [
        {
          "internalType": "contract Reputation",
          "name": "",
          "type": "address"
        }
      ],
      "stateMutability": "view",
      "type": "function"
    },
    {
      "inputs": [],
      "name": "stablecoin",
      "outputs": [
        {
          "internalType": "contract IERC20",
          "name": "",
          "type": "address"
        }
      ],
      "stateMutability": "view",
      "type": "function"
    },
    {
      "inputs": [],
      "name": "status",
      "outputs": [
        {
          "internalType": "enum LoanContract.LoanStatus",
          "name": "",
          "type": "uint8"
        }
      ],
      "stateMutability": "view",
      "type": "function"
    },
    {
      "inputs": [],
      "name": "term",
      "outputs": [
        {
          "internalType": "uint256",
          "name": "",
          "type": "uint256"
        }
      ],
      "stateMutability": "view",
      "type": "function"
    }
  ],
  "bytecode": "0x60806040523480156200001157600080fd5b506040516200180638038062001806833981810160405281019062000037919062000236565b866000806101000a81548173ffffffffffffffffffffffffffffffffffffffff021916908373ffffffffffffffffffffffffffffffffffffffff16021790555085600160006101000a81548173ffffffffffffffffffffffffffffffffffffffff021916908373ffffffffffffffffffffffffffffffffffffffff16021790555084600260006101000a81548173ffffffffffffffffffffffffffffffffffffffff021916908373ffffffffffffffffffffffffffffffffffffffff16021790555083600360006101000a81548173ffffffffffffffffffffffffffffffffffffffff021916908373ffffffffffffffffffffffffffffffffffffffff160217905550826004819055508160058190555080600681905550426007819055506000600960016101000a81548160ff021916908360028111156200017f576200017e620002e9565b5b02179055505050505050505062000318565b600080fd5b600073ffffffffffffffffffffffffffffffffffffffff82169050919050565b6000620001c38262000196565b9050919050565b620001d581620001b6565b8114620001e157600080fd5b50565b600081519050620001f581620001ca565b92915050565b6000819050919050565b6200021081620001fb565b81146200021c57600080fd5b50565b600081519050620002308162000205565b92915050565b600080600080600080600060e0888a03121562000258576200025762000191565b5b6000620002688a828b01620001e4565b97505060206200027b8a828b01620001e4565b96505060406200028e8a828b01620001e4565b9550506060620002a18a828b01620001e4565b9450506080620002b48a828b016200021f565b93505060a0620002c78a828b016200021f565b92505060c0620002da8a828b016200021f565b91505092959891949750929550565b7f4e487b7100000000000000000000000000000000000000000000000000000000600052602160045260246000fd5b6114de80620003286000396000f3fe608060405234801561001057600080fd5b50600436106100ea5760003560e01c8063a10ffbed1161008c578063bcead63e11610066578063bcead63e146101f3578063c62b25e514610211578063e9cbd8221461021b578063ee86afd814610239576100ea565b8063a10ffbed146101ad578063abc6fd0b146101cb578063ba5d3078146101d5576100ea565b8063402d8883116100c8578063402d8883146101495780637c3a00fd146101535780637df1f1b91461017157806387bc14251461018f576100ea565b806305b34410146100ef57806310812a7d1461010d578063200d2ed21461012b575b600080fd5b6100f7610257565b6040516101049190610cdf565b60405180910390f35b61011561025d565b6040516101229190610d15565b60405180910390f35b610133610270565b6040516101409190610da7565b60405180910390f35b610151610283565b005b61015b610716565b6040516101689190610cdf565b60405180910390f35b61017961071c565b6040516101869190610e03565b60405180910390f35b610197610740565b6040516101a49190610e7d565b60405180910390f35b6101b5610766565b6040516101c29190610cdf565b60405180910390f35b6101d361076c565b005b6101dd6109d8565b6040516101ea9190610cdf565b60405180910390f35b6101fb6109de565b6040516102089190610e03565b60405180910390f35b610219610a04565b005b610223610c9a565b6040516102309190610eb9565b60405180910390f35b610241610cc0565b60405161024e9190610cdf565b60405180910390f35b60075481565b600960009054906101000a900460ff1681565b600960019054906101000a900460ff1681565b60008054906101000a900473ffffffffffffffffffffffffffffffffffffffff1673ffffffffffffffffffffffffffffffffffffffff163373ffffffffffffffffffffffffffffffffffffffff1614610311576040517f08c379a000000000000000000000000000000000000000000000000000000000815260040161030890610f31565b60405180910390fd5b6000600281111561032557610324610d30565b5b600960019054906101000a900460ff16600281111561034757610346610d30565b5b14610387576040517f08c379a000000000000000000000000000000000000000000000000000000000815260040161037e90610f9d565b60405180910390fd5b600061271060055460045461039c9190610fec565b6103a6919061105d565b6004546103b3919061108e565b90506000600854826103c591906110c2565b9050600260009054906101000a900473ffffffffffffffffffffffffffffffffffffffff1673ffffffffffffffffffffffffffffffffffffffff166323b872dd3330846040518463ffffffff1660e01b8152600401610426939291906110f6565b6020604051808303816000875af1158015610445573d6000803e3d6000fd5b505050506040513d601f19601f82011682018060405250810190610469919061115e565b6104a8576040517f08c379a000000000000000000000000000000000000000000000000000000000815260040161049f906111d7565b60405180910390fd5b80600860008282546104ba919061108e565b925050819055508160085410610712576001600960016101000a81548160ff021916908360028111156104f0576104ef610d30565b5b0217905550600360009054906101000a900473ffffffffffffffffffffffffffffffffffffffff1673ffffffffffffffffffffffffffffffffffffffff16639d5269a760008054906101000a900473ffffffffffffffffffffffffffffffffffffffff166040518263ffffffff1660e01b81526004016105709190610e03565b600060405180830381600087803b15801561058a57600080fd5b505af115801561059e573d6000803e3d6000fd5b50505050600260009054906101000a900473ffffffffffffffffffffffffffffffffffffffff1673ffffffffffffffffffffffffffffffffffffffff1663a9059cbb600160009054906101000a900473ffffffffffffffffffffffffffffffffffffffff16846040518363ffffffff1660e01b81526004016106219291906111f7565b6020604051808303816000875af1158015610640573d6000803e3d6000fd5b505050506040513d601f19601f82011682018060405250810190610664919061115e565b6106a3576040517f08c379a000000000000000000000000000000000000000000000000000000000815260040161069a9061126c565b60405180910390fd5b60008054906101000a900473ffffffffffffffffffffffffffffffffffffffff1673ffffffffffffffffffffffffffffffffffffffff167f0516911bcc3a0a7412a44601057c0a0a1ec628bde049a84284bc428866534488836040516107099190610cdf565b60405180910390a25b5050565b60055481565b60008054906101000a900473ffffffffffffffffffffffffffffffffffffffff1681565b600360009054906101000a900473ffffffffffffffffffffffffffffffffffffffff1681565b60065481565b60008054906101000a900473ffffffffffffffffffffffffffffffffffffffff1673ffffffffffffffffffffffffffffffffffffffff163373ffffffffffffffffffffffffffffffffffffffff16146107fa576040517f08c379a00000000000000000000000000000000000000000000000000000000081526004016107f1906112d8565b60405180910390fd5b600960009054906101000a900460ff161561084a576040517f08c379a000000000000000000000000000000000000000000000000000000000815260040161084190611344565b60405180910390fd5b6001600960006101000a81548160ff021916908315150217905550600260009054906101000a900473ffffffffffffffffffffffffffffffffffffffff1673ffffffffffffffffffffffffffffffffffffffff1663a9059cbb60008054906101000a900473ffffffffffffffffffffffffffffffffffffffff166004546040518363ffffffff1660e01b81526004016108e49291906111f7565b6020604051808303816000875af1158015610903573d6000803e3d6000fd5b505050506040513d601f19601f82011682018060405250810190610927919061115e565b610966576040517f08c379a000000000000000000000000000000000000000000000000000000000815260040161095d906113b0565b60405180910390fd5b60008054906101000a900473ffffffffffffffffffffffffffffffffffffffff1673ffffffffffffffffffffffffffffffffffffffff167f5724630c7039b7451802c963e5285779ee0776995655e2fb2cc6215d909493d96004546040516109ce9190610cdf565b60405180910390a2565b60045481565b600160009054906101000a900473ffffffffffffffffffffffffffffffffffffffff1681565b600160009054906101000a900473ffffffffffffffffffffffffffffffffffffffff1673ffffffffffffffffffffffffffffffffffffffff163373ffffffffffffffffffffffffffffffffffffffff1614610a94576040517f08c379a0000000000000000000000000000000000000000000000000000000008152600401610a8b9061141c565b60405180910390fd5b60006002811115610aa857610aa7610d30565b5b600960019054906101000a900460ff166002811115610aca57610ac9610d30565b5b14610b0a576040517f08c379a0000000000000000000000000000000000000000000000000000000008152600401610b0190610f9d565b60405180910390fd5b600654600754610b1a919061108e565b4211610b5b576040517f08c379a0000000000000000000000000000000000000000000000000000000008152600401610b5290611488565b60405180910390fd5b6002600960016101000a81548160ff02191690836002811115610b8157610b80610d30565b5b0217905550600360009054906101000a900473ffffffffffffffffffffffffffffffffffffffff1673ffffffffffffffffffffffffffffffffffffffff1663cc8bc0cf60008054906101000a900473ffffffffffffffffffffffffffffffffffffffff166040518263ffffffff1660e01b8152600401610c019190610e03565b600060405180830381600087803b158015610c1b57600080fd5b505af1158015610c2f573d6000803e3d6000fd5b50505050600160009054906101000a900473ffffffffffffffffffffffffffffffffffffffff1673ffffffffffffffffffffffffffffffffffffffff167fcf91a537195f9ac8bb3ab97a45c12bf0dd5bc9988dfddf0ec005b1baabc17dbb60405160405180910390a2565b600260009054906101000a900473ffffffffffffffffffffffffffffffffffffffff1681565b60085481565b6000819050919050565b610cd981610cc6565b82525050565b6000602082019050610cf46000830184610cd0565b92915050565b60008115159050919050565b610d0f81610cfa565b82525050565b6000602082019050610d2a6000830184610d06565b92915050565b7f4e487b7100000000000000000000000000000000000000000000000000000000600052602160045260246000fd5b60038110610d7057610d6f610d30565b5b50565b6000819050610d8182610d5f565b919050565b6000610d9182610d73565b9050919050565b610da181610d86565b82525050565b6000602082019050610dbc6000830184610d98565b92915050565b600073ffffffffffffffffffffffffffffffffffffffff82169050919050565b6000610ded82610dc2565b9050919050565b610dfd81610de2565b82525050565b6000602082019050610e186000830184610df4565b92915050565b6000819050919050565b6000610e43610e3e610e3984610dc2565b610e1e565b610dc2565b9050919050565b6000610e5582610e28565b9050919050565b6000610e6782610e4a565b9050919050565b610e7781610e5c565b82525050565b6000602082019050610e926000830184610e6e565b92915050565b6000610ea382610e4a565b9050919050565b610eb381610e98565b82525050565b6000602082019050610ece6000830184610eaa565b92915050565b600082825260208201905092915050565b7f4f6e6c7920626f72726f7765722063616e207265706179000000000000000000600082015250565b6000610f1b601783610ed4565b9150610f2682610ee5565b602082019050919050565b60006020820190508181036000830152610f4a81610f0e565b9050919050565b7f4c6f616e206973206e6f74206163746976650000000000000000000000000000600082015250565b6000610f87601283610ed4565b9150610f9282610f51565b602082019050919050565b60006020820190508181036000830152610fb681610f7a565b9050919050565b7f4e487b7100000000000000000000000000000000000000000000000000000000600052601160045260246000fd5b6000610ff782610cc6565b915061100283610cc6565b925082820261101081610cc6565b9150828204841483151761102757611026610fbd565b5b5092915050565b7f4e487b7100000000000000000000000000000000000000000000000000000000600052601260045260246000fd5b600061106882610cc6565b915061107383610cc6565b9250826110835761108261102e565b5b828204905092915050565b600061109982610cc6565b91506110a483610cc6565b92508282019050808211156110bc576110bb610fbd565b5b92915050565b60006110cd82610cc6565b91506110d883610cc6565b92508282039050818111156110f0576110ef610fbd565b5b92915050565b600060608201905061110b6000830186610df4565b6111186020830185610df4565b6111256040830184610cd0565b949350505050565b600080fd5b61113b81610cfa565b811461114657600080fd5b50565b60008151905061115881611132565b92915050565b6000602082840312156111745761117361112d565b5b600061118284828501611149565b91505092915050565b7f52657061796d656e74207472616e73666572206661696c656400000000000000600082015250565b60006111c1601983610ed4565b91506111cc8261118b565b602082019050919050565b600060208201905081810360008301526111f0816111b4565b9050919050565b600060408201905061120c6000830185610df4565b6112196020830184610cd0565b9392505050565b7f4c656e646572207061796d656e74206661696c65640000000000000000000000600082015250565b6000611256601583610ed4565b915061126182611220565b602082019050919050565b6000602082019050818103600083015261128581611249565b9050919050565b7f4f6e6c7920626f72726f7765722063616e206469736275727365000000000000600082015250565b60006112c2601a83610ed4565b91506112cd8261128c565b602082019050919050565b600060208201905081810360008301526112f1816112b5565b9050919050565b7f4c6f616e20616c72656164792064697362757273656400000000000000000000600082015250565b600061132e601683610ed4565b9150611339826112f8565b602082019050919050565b6000602082019050818103600083015261135d81611321565b9050919050565b7f44697362757273656d656e74206661696c656400000000000000000000000000600082015250565b600061139a601383610ed4565b91506113a582611364565b602082019050919050565b600060208201905081810360008301526113c98161138d565b9050919050565b7f4f6e6c79206c656e6465722063616e20636c61696d2064656661756c74000000600082015250565b6000611406601d83610ed4565b9150611411826113d0565b602082019050919050565b60006020820190508181036000830152611435816113f9565b9050919050565b7f4c6f616e206973206e6f74207061737420647565000000000000000000000000600082015250565b6000611472601483610ed4565b915061147d8261143c565b602082019050919050565b600060208201905081810360008301526114a181611465565b905091905056fea26469706673582212202a39c8211c4c65c4723b57bddee6664e36f97b71fc63ec371996f382a75f9cc064736f6c63430008140033",
  "linkReferences": {},
  "deployedLinkReferences": {}
}