{
  "_format": "hh-sol-artifact-1",
  "contractName": "LoanMarketplace",
  "sourceName": "contracts/LoanMarketplace.sol",
  "abi": [
    {
      "inputs": [
        {
          "internalType": "address",
          "name": "_stablecoinAddress",
          "type": "address"
        },
        {
          "internalType": "address",
          "name": "_reputationAddress",
          "type": "address"
        }
      ],
      "stateMutability": "nonpayable",
      "type": "constructor"
    },
    {
      "anonymous": false,
      "inputs": [
        {
          "indexed": true,
          "internalType": "address",
          "name": "lender",
          "type": "address"
        },
        {
          "indexed": false,
          "internalType": "uint256",
          "name": "amount",
          "type": "uint256"
        }
      ],
      "name": "FundsDeposited",
      "type": "event"
    },
    {
      "anonymous": false,
      "inputs": [
        {
          "indexed": true,
          "internalType": "address",
          "name": "lender",
          "type": "address"
        },
        {
          "indexed": false,
          "internalType": "uint256",
          "name": "amount",
          "type": "uint256"
        }
      ],
      "name": "FundsWithdrawn",
      "type": "event"
    },
    {
      "anonymous": false,
      "inputs": [
        {
          "indexed": true,
          "internalType": "uint256",
          "name": "requestId",
          "type": "uint256"
        },
        {
          "indexed": true,
          "internalType": "address",
          "name": "lender",
          "type": "address"
        },
        {
          "indexed": false,
          "internalType": "address",
          "name": "loanContract",
          "type": "address"
        }
      ],
      "name": "LoanFunded",
      "type": "event"
    },
    {
      "anonymous": false,
      "inputs": [
        {
          "indexed": true,
          "internalType": "uint256",
          "name": "requestId",
          "type": "uint256"
        },
        {
          "indexed": true,
          "internalType": "address",
          "name": "borrower",
          "type": "address"
        },
        {
          "indexed": false,
          "internalType": "uint256",
          "name": "amount",
          "type": "uint256"
        },
        {
          "indexed": false,
          "internalType": "uint256",
          "name": "term",
          "type": "uint256"
        },
        {
          "indexed": false,
          "internalType": "uint256",
          "name": "interestRate",
          "type": "uint256"
        }
      ],
      "name": "LoanRequested",
      "type": "event"
    },
    {
      "inputs": [
        {
          "internalType": "uint256",
          "name": "amount",
          "type": "uint256"
        }
      ],
      "name": "deposit",
      "outputs": [],
      "stateMutability": "nonpayable",
      "type": "function"
    },
    {
      "inputs": [
        {
          "internalType": "uint256",
          "name": "requestId",
          "type": "uint256"
        }
      ],
      "name": "fundLoan",
      "outputs": [],
      "stateMutability": "nonpayable",
      "type": "function"
    },
    {
      "inputs": [
        {
          "internalType": "address",
          "name": "",
          "type": "address"
        }
      ],
      "name": "lenderBalances",
      "outputs": [
        {
          "internalType": "uint256",
          "name": "",
          "type": "uint256"
        }
      ],
      "stateMutability": "view",
      "type": "function"
    },
    {
      "inputs": [
        {
          "internalType": "uint256",
          "name": "",
          "type": "uint256"
        }
      ],
      "name": "loanRequests",
      "outputs": [
        {
          "internalType": "uint256",
          "name": "id",
          "type": "uint256"
        },
        {
          "internalType": "address",
          "name": "borrower",
          "type": "address"
        },
        {
          "internalType": "uint256",
          "name": "amount",
          "type": "uint256"
        },
        {
          "internalType": "uint256",
          "name": "term",
          "type": "uint256"
        },
        {
          "internalType": "uint256",
          "name": "interestRate",
          "type": "uint256"
        },
        {
          "internalType": "bool",
          "name": "fulfilled",
          "type": "bool"
        },
        {
          "internalType": "address",
          "name": "loanContractAddress",
          "type": "address"
        }
      ],
      "stateMutability": "view",
      "type": "function"
    },
    {
      "inputs": [],
      "name": "nextLoanRequestId",
      "outputs": [
        {
          "internalType": "uint256",
          "name": "",
          "type": "uint256"
        }
      ],
      "stateMutability": "view",
      "type": "function"
    },
    {
      "inputs": [],
      "name": "reputationContract",
      "outputs": [
        {
          "internalType": "contract Reputation",
          "name": "",
          "type": "address"
        }
      ],
      "stateMutability": "view",
      "type": "function"
    },
    {
      "inputs": [
        {
          "internalType": "uint256",
          "name": "amount",
          "type": "uint256"
        },
        {
          "internalType": "uint256",
          "name": "term",
          "type": "uint256"
        },
        {
          "internalType": "uint256",
          "name": "interestRate",
          "type": "uint256"
        }
      ],
      "name": "requestLoan",
      "outputs": [],
      "stateMutability": "nonpayable",
      "type": "function"
    },
    {
      "inputs": [],
      "name": "stablecoin",
      "outputs": [
        {
          "internalType": "contract IERC20",
          "name": "",
          "type": "address"
        }
      ],
      "stateMutability": "view",
      "type": "function"
    },
    {
      "inputs": [
        {
          "internalType": "uint256",
          "name": "amount",
          "type": "uint256"
        }
      ],
      "name": "withdraw",
      "outputs": [],
      "stateMutability": "nonpayable",
      "type": "function"
    }
  ],
  "bytecode": "0x60806040523480156200001157600080fd5b50604051620032523803806200325283398181016040528101906200003791906200012a565b816000806101000a81548173ffffffffffffffffffffffffffffffffffffffff021916908373ffffffffffffffffffffffffffffffffffffffff16021790555080600160006101000a81548173ffffffffffffffffffffffffffffffffffffffff021916908373ffffffffffffffffffffffffffffffffffffffff160217905550505062000171565b600080fd5b600073ffffffffffffffffffffffffffffffffffffffff82169050919050565b6000620000f282620000c5565b9050919050565b6200010481620000e5565b81146200011057600080fd5b50565b6000815190506200012481620000f9565b92915050565b60008060408385031215620001445762000143620000c0565b5b6000620001548582860162000113565b9250506020620001678582860162000113565b9150509250929050565b6130d180620001816000396000f3fe60806040523480156200001157600080fd5b5060043610620000a05760003560e01c8063b6b55f25116200006f578063b6b55f25146200013d578063d1b332f4146200015d578063e9cbd8221462000199578063edadbbfe14620001bb578063f55e9fe714620001db57620000a0565b80632e1a7d4d14620000a5578063846b909a14620000c557806387bc142514620000e5578063a27a944d1462000107575b600080fd5b620000c36004803603810190620000bd919062000e69565b620001fd565b005b620000e36004803603810190620000dd919062000e69565b62000458565b005b620000ef62000852565b604051620000fe919062000f26565b60405180910390f35b6200012560048036038101906200011f919062000f88565b62000878565b60405162000134919062000fcb565b60405180910390f35b6200015b600480360381019062000155919062000e69565b62000890565b005b6200017b600480360381019062000175919062000e69565b62000a68565b60405162000190979695949392919062001016565b60405180910390f35b620001a362000af7565b604051620001b29190620010b8565b60405180910390f35b620001d96004803603810190620001d39190620010d5565b62000b1b565b005b620001e562000e15565b604051620001f4919062000fcb565b60405180910390f35b6000811162000243576040517f08c379a00000000000000000000000000000000000000000000000000000000081526004016200023a9062001192565b60405180910390fd5b80600260003373ffffffffffffffffffffffffffffffffffffffff1673ffffffffffffffffffffffffffffffffffffffff168152602001908152602001600020541015620002c8576040517f08c379a0000000000000000000000000000000000000000000000000000000008152600401620002bf9062001204565b60405180910390fd5b80600260003373ffffffffffffffffffffffffffffffffffffffff1673ffffffffffffffffffffffffffffffffffffffff168152602001908152602001600020600082825462000319919062001255565b9250508190555060008054906101000a900473ffffffffffffffffffffffffffffffffffffffff1673ffffffffffffffffffffffffffffffffffffffff1663a9059cbb33836040518363ffffffff1660e01b81526004016200037d92919062001290565b6020604051808303816000875af11580156200039d573d6000803e3d6000fd5b505050506040513d601f19601f82011682018060405250810190620003c39190620012ee565b62000405576040517f08c379a0000000000000000000000000000000000000000000000000000000008152600401620003fc9062001370565b60405180910390fd5b3373ffffffffffffffffffffffffffffffffffffffff167feaff4b37086828766ad3268786972c0cd24259d4c87a80f9d3963a3c3d999b0d826040516200044d919062000fcb565b60405180910390a250565b600060036000838152602001908152602001600020905081816000015414620004b8576040517f08c379a0000000000000000000000000000000000000000000000000000000008152600401620004af90620013e2565b60405180910390fd5b8060050160009054906101000a900460ff16156200050d576040517f08c379a0000000000000000000000000000000000000000000000000000000008152600401620005049062001454565b60405180910390fd5b8060020154600260003373ffffffffffffffffffffffffffffffffffffffff1673ffffffffffffffffffffffffffffffffffffffff16815260200190815260200160002054101562000596576040517f08c379a00000000000000000000000000000000000000000000000000000000081526004016200058d9062001204565b60405180910390fd5b8060020154600260003373ffffffffffffffffffffffffffffffffffffffff1673ffffffffffffffffffffffffffffffffffffffff1681526020019081526020016000206000828254620005eb919062001255565b9250508190555060008160010160009054906101000a900473ffffffffffffffffffffffffffffffffffffffff163360008054906101000a900473ffffffffffffffffffffffffffffffffffffffff16600160009054906101000a900473ffffffffffffffffffffffffffffffffffffffff168560020154866004015487600301546040516200067b9062000e1b565b6200068d979695949392919062001476565b604051809103906000f080158015620006aa573d6000803e3d6000fd5b5090506000819050808360050160016101000a81548173ffffffffffffffffffffffffffffffffffffffff021916908373ffffffffffffffffffffffffffffffffffffffff16021790555060008054906101000a900473ffffffffffffffffffffffffffffffffffffffff1673ffffffffffffffffffffffffffffffffffffffff1663a9059cbb8285600201546040518363ffffffff1660e01b81526004016200075692919062001290565b6020604051808303816000875af115801562000776573d6000803e3d6000fd5b505050506040513d601f19601f820116820180604052508101906200079c9190620012ee565b620007de576040517f08c379a0000000000000000000000000000000000000000000000000000000008152600401620007d59062001543565b60405180910390fd5b60018360050160006101000a81548160ff0219169083151502179055503373ffffffffffffffffffffffffffffffffffffffff16847fe88df70f334c7437cb932c4b6c8e26bb4b53c69830a65574244cd54d11bf891b8360405162000844919062001565565b60405180910390a350505050565b600160009054906101000a900473ffffffffffffffffffffffffffffffffffffffff1681565b60026020528060005260406000206000915090505481565b60008111620008d6576040517f08c379a0000000000000000000000000000000000000000000000000000000008152600401620008cd90620015d2565b60405180910390fd5b80600260003373ffffffffffffffffffffffffffffffffffffffff1673ffffffffffffffffffffffffffffffffffffffff1681526020019081526020016000206000828254620009279190620015f4565b9250508190555060008054906101000a900473ffffffffffffffffffffffffffffffffffffffff1673ffffffffffffffffffffffffffffffffffffffff166323b872dd3330846040518463ffffffff1660e01b81526004016200098d939291906200162f565b6020604051808303816000875af1158015620009ad573d6000803e3d6000fd5b505050506040513d601f19601f82011682018060405250810190620009d39190620012ee565b62000a15576040517f08c379a000000000000000000000000000000000000000000000000000000000815260040162000a0c90620016bc565b60405180910390fd5b3373ffffffffffffffffffffffffffffffffffffffff167f543ba50a5eec5e6178218e364b1d0f396157b3c8fa278522c2cb7fd99407d4748260405162000a5d919062000fcb565b60405180910390a250565b60036020528060005260406000206000915090508060000154908060010160009054906101000a900473ffffffffffffffffffffffffffffffffffffffff16908060020154908060030154908060040154908060050160009054906101000a900460ff16908060050160019054906101000a900473ffffffffffffffffffffffffffffffffffffffff16905087565b60008054906101000a900473ffffffffffffffffffffffffffffffffffffffff1681565b6000831162000b61576040517f08c379a000000000000000000000000000000000000000000000000000000000815260040162000b58906200172e565b60405180910390fd5b6000600160009054906101000a900473ffffffffffffffffffffffffffffffffffffffff1673ffffffffffffffffffffffffffffffffffffffff1663d47875d0336040518263ffffffff1660e01b815260040162000bc0919062001565565b602060405180830381865afa15801562000bde573d6000803e3d6000fd5b505050506040513d601f19601f8201168201806040525081019062000c04919062001767565b90506101f4811162000c4d576040517f08c379a000000000000000000000000000000000000000000000000000000000815260040162000c4490620017e9565b60405180910390fd5b60006004600081548092919062000c64906200180b565b9190505590506040518060e001604052808281526020013373ffffffffffffffffffffffffffffffffffffffff168152602001868152602001858152602001848152602001600015158152602001600073ffffffffffffffffffffffffffffffffffffffff16815250600360008381526020019081526020016000206000820151816000015560208201518160010160006101000a81548173ffffffffffffffffffffffffffffffffffffffff021916908373ffffffffffffffffffffffffffffffffffffffff16021790555060408201518160020155606082015181600301556080820151816004015560a08201518160050160006101000a81548160ff02191690831515021790555060c08201518160050160016101000a81548173ffffffffffffffffffffffffffffffffffffffff021916908373ffffffffffffffffffffffffffffffffffffffff1602179055509050503373ffffffffffffffffffffffffffffffffffffffff16817ff6cc19e46a340ab5888d736bfc79aef72ae92d12d7b76319d72b0abc170868e687878760405162000e069392919062001858565b60405180910390a35050505050565b60045481565b611806806200189683390190565b600080fd5b6000819050919050565b62000e438162000e2e565b811462000e4f57600080fd5b50565b60008135905062000e638162000e38565b92915050565b60006020828403121562000e825762000e8162000e29565b5b600062000e928482850162000e52565b91505092915050565b600073ffffffffffffffffffffffffffffffffffffffff82169050919050565b6000819050919050565b600062000ee662000ee062000eda8462000e9b565b62000ebb565b62000e9b565b9050919050565b600062000efa8262000ec5565b9050919050565b600062000f0e8262000eed565b9050919050565b62000f208162000f01565b82525050565b600060208201905062000f3d600083018462000f15565b92915050565b600062000f508262000e9b565b9050919050565b62000f628162000f43565b811462000f6e57600080fd5b50565b60008135905062000f828162000f57565b92915050565b60006020828403121562000fa15762000fa062000e29565b5b600062000fb18482850162000f71565b91505092915050565b62000fc58162000e2e565b82525050565b600060208201905062000fe2600083018462000fba565b92915050565b62000ff38162000f43565b82525050565b60008115159050919050565b620010108162000ff9565b82525050565b600060e0820190506200102d600083018a62000fba565b6200103c602083018962000fe8565b6200104b604083018862000fba565b6200105a606083018762000fba565b62001069608083018662000fba565b6200107860a083018562001005565b6200108760c083018462000fe8565b98975050505050505050565b6000620010a08262000eed565b9050919050565b620010b28162001093565b82525050565b6000602082019050620010cf6000830184620010a7565b92915050565b600080600060608486031215620010f157620010f062000e29565b5b6000620011018682870162000e52565b9350506020620011148682870162000e52565b9250506040620011278682870162000e52565b9150509250925092565b600082825260208201905092915050565b7f576974686472617720616d6f756e74206d75737420626520706f736974697665600082015250565b60006200117a60208362001131565b9150620011878262001142565b602082019050919050565b60006020820190508181036000830152620011ad816200116b565b9050919050565b7f496e73756666696369656e742062616c616e6365000000000000000000000000600082015250565b6000620011ec60148362001131565b9150620011f982620011b4565b602082019050919050565b600060208201905081810360008301526200121f81620011dd565b9050919050565b7f4e487b7100000000000000000000000000000000000000000000000000000000600052601160045260246000fd5b6000620012628262000e2e565b91506200126f8362000e2e565b92508282039050818111156200128a576200128962001226565b5b92915050565b6000604082019050620012a7600083018562000fe8565b620012b6602083018462000fba565b9392505050565b620012c88162000ff9565b8114620012d457600080fd5b50565b600081519050620012e881620012bd565b92915050565b60006020828403121562001307576200130662000e29565b5b60006200131784828501620012d7565b91505092915050565b7f5769746864726177616c206661696c6564000000000000000000000000000000600082015250565b60006200135860118362001131565b9150620013658262001320565b602082019050919050565b600060208201905081810360008301526200138b8162001349565b9050919050565b7f4c6f616e207265717565737420646f6573206e6f742065786973740000000000600082015250565b6000620013ca601b8362001131565b9150620013d78262001392565b602082019050919050565b60006020820190508181036000830152620013fd81620013bb565b9050919050565b7f4c6f616e20616c72656164792066756c66696c6c656400000000000000000000600082015250565b60006200143c60168362001131565b9150620014498262001404565b602082019050919050565b600060208201905081810360008301526200146f816200142d565b9050919050565b600060e0820190506200148d600083018a62000fe8565b6200149c602083018962000fe8565b620014ab604083018862000fe8565b620014ba606083018762000fe8565b620014c9608083018662000fba565b620014d860a083018562000fba565b620014e760c083018462000fba565b98975050505050505050565b7f46756e64696e67206661696c6564000000000000000000000000000000000000600082015250565b60006200152b600e8362001131565b91506200153882620014f3565b602082019050919050565b600060208201905081810360008301526200155e816200151c565b9050919050565b60006020820190506200157c600083018462000fe8565b92915050565b7f4465706f73697420616d6f756e74206d75737420626520706f73697469766500600082015250565b6000620015ba601f8362001131565b9150620015c78262001582565b602082019050919050565b60006020820190508181036000830152620015ed81620015ab565b9050919050565b6000620016018262000e2e565b91506200160e8362000e2e565b925082820190508082111562001629576200162862001226565b5b92915050565b600060608201905062001646600083018662000fe8565b62001655602083018562000fe8565b62001664604083018462000fba565b949350505050565b7f4465706f736974206661696c6564000000000000000000000000000000000000600082015250565b6000620016a4600e8362001131565b9150620016b1826200166c565b602082019050919050565b60006020820190508181036000830152620016d78162001695565b9050919050565b7f4c6f616e20616d6f756e74206d75737420626520706f73697469766500000000600082015250565b600062001716601c8362001131565b91506200172382620016de565b602082019050919050565b60006020820190508181036000830152620017498162001707565b9050919050565b600081519050620017618162000e38565b92915050565b60006020828403121562001780576200177f62000e29565b5b6000620017908482850162001750565b91505092915050565b7f496e73756666696369656e74206372656469742073636f726500000000000000600082015250565b6000620017d160198362001131565b9150620017de8262001799565b602082019050919050565b600060208201905081810360008301526200180481620017c2565b9050919050565b6000620018188262000e2e565b91507fffffffffffffffffffffffffffffffffffffffffffffffffffffffffffffffff82036200184d576200184c62001226565b5b600182019050919050565b60006060820190506200186f600083018662000fba565b6200187e602083018562000fba565b6200188d604083018462000fba565b94935050505056fe60806040523480156200001157600080fd5b506040516200180638038062001806833981810160405281019062000037919062000236565b866000806101000a81548173ffffffffffffffffffffffffffffffffffffffff021916908373ffffffffffffffffffffffffffffffffffffffff16021790555085600160006101000a81548173ffffffffffffffffffffffffffffffffffffffff021916908373ffffffffffffffffffffffffffffffffffffffff16021790555084600260006101000a81548173ffffffffffffffffffffffffffffffffffffffff021916908373ffffffffffffffffffffffffffffffffffffffff16021790555083600360006101000a81548173ffffffffffffffffffffffffffffffffffffffff021916908373ffffffffffffffffffffffffffffffffffffffff160217905550826004819055508160058190555080600681905550426007819055506000600960016101000a81548160ff021916908360028111156200017f576200017e620002e9565b5b02179055505050505050505062000318565b600080fd5b600073ffffffffffffffffffffffffffffffffffffffff82169050919050565b6000620001c38262000196565b9050919050565b620001d581620001b6565b8114620001e157600080fd5b50565b600081519050620001f581620001ca565b92915050565b6000819050919050565b6200021081620001fb565b81146200021c57600080fd5b50565b600081519050620002308162000205565b92915050565b600080600080600080600060e0888a03121562000258576200025762000191565b5b6000620002688a828b01620001e4565b97505060206200027b8a828b01620001e4565b96505060406200028e8a828b01620001e4565b9550506060620002a18a828b01620001e4565b9450506080620002b48a828b016200021f565b93505060a0620002c78a828b016200021f565b92505060c0620002da8a828b016200021f565b91505092959891949750929550565b7f4e487b7100000000000000000000000000000000000000000000000000000000600052602160045260246000fd5b6114de80620003286000396000f3fe608060405234801561001057600080fd5b50600436106100ea5760003560e01c8063a10ffbed1161008c578063bcead63e11610066578063bcead63e146101f3578063c62b25e514610211578063e9cbd8221461021b578063ee86afd814610239576100ea565b8063a10ffbed146101ad578063abc6fd0b146101cb578063ba5d3078146101d5576100ea565b8063402d8883116100c8578063402d8883146101495780637c3a00fd146101535780637df1f1b91461017157806387bc14251461018f576100ea565b806305b34410146100ef57806310812a7d1461010d578063200d2ed21461012b575b600080fd5b6100f7610257565b6040516101049190610cdf565b60405180910390f35b61011561025d565b6040516101229190610d15565b60405180910390f35b610133610270565b6040516101409190610da7565b60405180910390f35b610151610283565b005b61015b610716565b6040516101689190610cdf565b60405180910390f35b61017961071c565b6040516101869190610e03565b60405180910390f35b610197610740565b6040516101a49190610e7d565b60405180910390f35b6101b5610766565b6040516101c29190610cdf565b60405180910390f35b6101d361076c565b005b6101dd6109d8565b6040516101ea9190610cdf565b60405180910390f35b6101fb6109de565b6040516102089190610e03565b60405180910390f35b610219610a04565b005b610223610c9a565b6040516102309190610eb9565b60405180910390f35b610241610cc0565b60405161024e9190610cdf565b60405180910390f35b60075481565b600960009054906101000a900460ff1681565b600960019054906101000a900460ff1681565b60008054906101000a900473ffffffffffffffffffffffffffffffffffffffff1673ffffffffffffffffffffffffffffffffffffffff163373ffffffffffffffffffffffffffffffffffffffff1614610311576040517f08c379a000000000000000000000000000000000000000000000000000000000815260040161030890610f31565b60405180910390fd5b6000600281111561032557610324610d30565b5b600960019054906101000a900460ff16600281111561034757610346610d30565b5b14610387576040517f08c379a000000000000000000000000000000000000000000000000000000000815260040161037e90610f9d565b60405180910390fd5b600061271060055460045461039c9190610fec565b6103a6919061105d565b6004546103b3919061108e565b90506000600854826103c591906110c2565b9050600260009054906101000a900473ffffffffffffffffffffffffffffffffffffffff1673ffffffffffffffffffffffffffffffffffffffff166323b872dd3330846040518463ffffffff1660e01b8152600401610426939291906110f6565b6020604051808303816000875af1158015610445573d6000803e3d6000fd5b505050506040513d601f19601f82011682018060405250810190610469919061115e565b6104a8576040517f08c379a000000000000000000000000000000000000000000000000000000000815260040161049f906111d7565b60405180910390fd5b80600860008282546104ba919061108e565b925050819055508160085410610712576001600960016101000a81548160ff021916908360028111156104f0576104ef610d30565b5b0217905550600360009054906101000a900473ffffffffffffffffffffffffffffffffffffffff1673ffffffffffffffffffffffffffffffffffffffff16639d5269a760008054906101000a900473ffffffffffffffffffffffffffffffffffffffff166040518263ffffffff1660e01b81526004016105709190610e03565b600060405180830381600087803b15801561058a57600080fd5b505af115801561059e573d6000803e3d6000fd5b50505050600260009054906101000a900473ffffffffffffffffffffffffffffffffffffffff1673ffffffffffffffffffffffffffffffffffffffff1663a9059cbb600160009054906101000a900473ffffffffffffffffffffffffffffffffffffffff16846040518363ffffffff1660e01b81526004016106219291906111f7565b6020604051808303816000875af1158015610640573d6000803e3d6000fd5b505050506040513d601f19601f82011682018060405250810190610664919061115e565b6106a3576040517f08c379a000000000000000000000000000000000000000000000000000000000815260040161069a9061126c565b60405180910390fd5b60008054906101000a900473ffffffffffffffffffffffffffffffffffffffff1673ffffffffffffffffffffffffffffffffffffffff167f0516911bcc3a0a7412a44601057c0a0a1ec628bde049a84284bc428866534488836040516107099190610cdf565b60405180910390a25b5050565b60055481565b60008054906101000a900473ffffffffffffffffffffffffffffffffffffffff1681565b600360009054906101000a900473ffffffffffffffffffffffffffffffffffffffff1681565b60065481565b60008054906101000a900473ffffffffffffffffffffffffffffffffffffffff1673ffffffffffffffffffffffffffffffffffffffff163373ffffffffffffffffffffffffffffffffffffffff16146107fa576040517f08c379a00000000000000000000000000000000000000000000000000000000081526004016107f1906112d8565b60405180910390fd5b600960009054906101000a900460ff161561084a576040517f08c379a000000000000000000000000000000000000000000000000000000000815260040161084190611344565b60405180910390fd5b6001600960006101000a81548160ff021916908315150217905550600260009054906101000a900473ffffffffffffffffffffffffffffffffffffffff1673ffffffffffffffffffffffffffffffffffffffff1663a9059cbb60008054906101000a900473ffffffffffffffffffffffffffffffffffffffff166004546040518363ffffffff1660e01b81526004016108e49291906111f7565b6020604051808303816000875af1158015610903573d6000803e3d6000fd5b505050506040513d601f19601f82011682018060405250810190610927919061115e565b610966576040517f08c379a000000000000000000000000000000000000000000000000000000000815260040161095d906113b0565b60405180910390fd5b60008054906101000a900473ffffffffffffffffffffffffffffffffffffffff1673ffffffffffffffffffffffffffffffffffffffff167f5724630c7039b7451802c963e5285779ee0776995655e2fb2cc6215d909493d96004546040516109ce9190610cdf565b60405180910390a2565b60045481565b600160009054906101000a900473ffffffffffffffffffffffffffffffffffffffff1681565b600160009054906101000a900473ffffffffffffffffffffffffffffffffffffffff1673ffffffffffffffffffffffffffffffffffffffff163373ffffffffffffffffffffffffffffffffffffffff1614610a94576040517f08c379a0000000000000000000000000000000000000000000000000000000008152600401610a8b9061141c565b60405180910390fd5b60006002811115610aa857610aa7610d30565b5b600960019054906101000a900460ff166002811115610aca57610ac9610d30565b5b14610b0a576040517f08c379a0000000000000000000000000000000000000000000000000000000008152600401610b0190610f9d565b60405180910390fd5b600654600754610b1a919061108e565b4211610b5b576040517f08c379a0000000000000000000000000000000000000000000000000000000008152600401610b5290611488565b60405180910390fd5b6002600960016101000a81548160ff02191690836002811115610b8157610b80610d30565b5b0217905550600360009054906101000a900473ffffffffffffffffffffffffffffffffffffffff1673ffffffffffffffffffffffffffffffffffffffff1663cc8bc0cf60008054906101000a900473ffffffffffffffffffffffffffffffffffffffff166040518263ffffffff1660e01b8152600401610c019190610e03565b600060405180830381600087803b158015610c1b57600080fd5b505af1158015610c2f573d6000803e3d6000fd5b50505050600160009054906101000a900473ffffffffffffffffffffffffffffffffffffffff1673ffffffffffffffffffffffffffffffffffffffff167fcf91a537195f9ac8bb3ab97a45c12bf0dd5bc9988dfddf0ec005b1baabc17dbb60405160405180910390a2565b600260009054906101000a900473ffffffffffffffffffffffffffffffffffffffff1681565b60085481565b6000819050919050565b610cd981610cc6565b82525050565b6000602082019050610cf46000830184610cd0565b92915050565b60008115159050919050565b610d0f81610cfa565b82525050565b6000602082019050610d2a6000830184610d06565b92915050565b7f4e487b7100000000000000000000000000000000000000000000000000000000600052602160045260246000fd5b60038110610d7057610d6f610d30565b5b50565b6000819050610d8182610d5f565b919050565b6000610d9182610d73565b9050919050565b610da181610d86565b82525050565b6000602082019050610dbc6000830184610d98565b92915050565b600073ffffffffffffffffffffffffffffffffffffffff82169050919050565b6000610ded82610dc2565b9050919050565b610dfd81610de2565b82525050565b6000602082019050610e186000830184610df4565b92915050565b6000819050919050565b6000610e43610e3e610e3984610dc2565b610e1e565b610dc2565b9050919050565b6000610e5582610e28565b9050919050565b6000610e6782610e4a565b9050919050565b610e7781610e5c565b82525050565b6000602082019050610e926000830184610e6e565b92915050565b6000610ea382610e4a565b9050919050565b610eb381610e98565b82525050565b6000602082019050610ece6000830184610eaa565b92915050565b600082825260208201905092915050565b7f4f6e6c7920626f72726f7765722063616e207265706179000000000000000000600082015250565b6000610f1b601783610ed4565b9150610f2682610ee5565b602082019050919050565b60006020820190508181036000830152610f4a81610f0e565b9050919050565b7f4c6f616e206973206e6f74206163746976650000000000000000000000000000600082015250565b6000610f87601283610ed4565b9150610f9282610f51565b602082019050919050565b60006020820190508181036000830152610fb681610f7a565b9050919050565b7f4e487b7100000000000000000000000000000000000000000000000000000000600052601160045260246000fd5b6000610ff782610cc6565b915061100283610cc6565b925082820261101081610cc6565b9150828204841483151761102757611026610fbd565b5b5092915050565b7f4e487b7100000000000000000000000000000000000000000000000000000000600052601260045260246000fd5b600061106882610cc6565b915061107383610cc6565b9250826110835761108261102e565b5b828204905092915050565b600061109982610cc6565b91506110a483610cc6565b92508282019050808211156110bc576110bb610fbd565b5b92915050565b60006110cd82610cc6565b91506110d883610cc6565b92508282039050818111156110f0576110ef610fbd565b5b92915050565b600060608201905061110b6000830186610df4565b6111186020830185610df4565b6111256040830184610cd0565b949350505050565b600080fd5b61113b81610cfa565b811461114657600080fd5b50565b60008151905061115881611132565b92915050565b6000602082840312156111745761117361112d565b5b600061118284828501611149565b91505092915050565b7f52657061796d656e74207472616e73666572206661696c656400000000000000600082015250565b60006111c1601983610ed4565b91506111cc8261118b565b602082019050919050565b600060208201905081810360008301526111f0816111b4565b9050919050565b600060408201905061120c6000830185610df4565b6112196020830184610cd0565b9392505050565b7f4c656e646572207061796d656e74206661696c65640000000000000000000000600082015250565b6000611256601583610ed4565b915061126182611220565b602082019050919050565b6000602082019050818103600083015261128581611249565b9050919050565b7f4f6e6c7920626f72726f7765722063616e206469736275727365000000000000600082015250565b60006112c2601a83610ed4565b91506112cd8261128c565b602082019050919050565b600060208201905081810360008301526112f1816112b5565b9050919050565b7f4c6f616e20616c72656164792064697362757273656400000000000000000000600082015250565b600061132e601683610ed4565b9150611339826112f8565b602082019050919050565b6000602082019050818103600083015261135d81611321565b9050919050565b7f44697362757273656d656e74206661696c656400000000000000000000000000600082015250565b600061139a601383610ed4565b91506113a582611364565b602082019050919050565b600060208201905081810360008301526113c98161138d565b9050919050565b7f4f6e6c79206c656e6465722063616e20636c61696d2064656661756c74000000600082015250565b6000611406601d83610ed4565b9150611411826113d0565b602082019050919050565b60006020820190508181036000830152611435816113f9565b9050919050565b7f4c6f616e206973206e6f74207061737420647565000000000000000000000000600082015250565b6000611472601483610ed4565b915061147d8261143c565b602082019050919050565b600060208201905081810360008301526114a181611465565b905091905056fea26469706673582212202a39c8211c4c65c4723b57bddee6664e36f97b71fc63ec371996f382a75f9cc064736f6c63430008140033a26469706673582212207f20e50204c999248ca6c28d88c073626120943dfc9f0b960e9a85a63424f75a64736f6c63430008140033",
  "linkReferences": {},
  "deployedLinkReferences": {}
}