{
  "_format": "hh-sol-artifact-1",
  "contractName": "Reputation",
  "sourceName": "contracts/Reputation.sol",
  "abi": [
    {
      "anonymous": false,
      "inputs": [
        {
          "indexed": true,
          "internalType": "address",
          "name": "user",
          "type": "address"
        },
        {
          "indexed": false,
          "internalType": "uint256",
          "name": "newScore",
          "type": "uint256"
        }
      ],
      "name": "ScoreUpdated",
      "type": "event"
    },
    {
      "inputs": [
        {
          "internalType": "address",
          "name": "user",
          "type": "address"
        }
      ],
      "name": "getScore",
      "outputs": [
        {
          "internalType": "uint256",
          "name": "",
          "type": "uint256"
        }
      ],
      "stateMutability": "view",
      "type": "function"
    },
    {
      "inputs": [
        {
          "internalType": "address",
          "name": "user",
          "type": "address"
        },
        {
          "internalType": "uint256",
          "name": "initialScore",
          "type": "uint256"
        }
      ],
      "name": "initializeUser",
      "outputs": [],
      "stateMutability": "nonpayable",
      "type": "function"
    },
    {
      "inputs": [
        {
          "internalType": "address",
          "name": "",
          "type": "address"
        }
      ],
      "name": "morphCreditScores",
      "outputs": [
        {
          "internalType": "uint256",
          "name": "",
          "type": "uint256"
        }
      ],
      "stateMutability": "view",
      "type": "function"
    },
    {
      "inputs": [
        {
          "internalType": "address",
          "name": "user",
          "type": "address"
        }
      ],
      "name": "penalizeDefault",
      "outputs": [],
      "stateMutability": "nonpayable",
      "type": "function"
    },
    {
      "inputs": [
        {
          "internalType": "address",
          "name": "user",
          "type": "address"
        }
      ],
      "name": "rewardRepayment",
      "outputs": [],
      "stateMutability": "nonpayable",
      "type": "function"
    }
  ],
  "bytecode": "0x608060405234801561001057600080fd5b506106e4806100206000396000f3fe608060405234801561001057600080fd5b50600436106100575760003560e01c80636e740fb21461005c5780639d5269a71461008c578063cc8bc0cf146100a8578063d47875d0146100c4578063e6bc59ca146100f4575b600080fd5b610076600480360381019061007191906104cd565b610110565b6040516100839190610513565b60405180910390f35b6100a660048036038101906100a191906104cd565b610128565b005b6100c260048036038101906100bd91906104cd565b610212565b005b6100de60048036038101906100d991906104cd565b61030c565b6040516100eb9190610513565b60405180910390f35b61010e6004803603810190610109919061055a565b610354565b005b60006020528060005260406000206000915090505481565b60008060008373ffffffffffffffffffffffffffffffffffffffff1673ffffffffffffffffffffffffffffffffffffffff168152602001908152602001600020549050600060198261017a91906105c9565b9050806000808573ffffffffffffffffffffffffffffffffffffffff1673ffffffffffffffffffffffffffffffffffffffff168152602001908152602001600020819055508273ffffffffffffffffffffffffffffffffffffffff167f66ead48cfe0e1d1aa8bad492e906c348dfcfeecbf3b7b2cdf9b1f3cfa42a2945826040516102059190610513565b60405180910390a2505050565b60008060008373ffffffffffffffffffffffffffffffffffffffff1673ffffffffffffffffffffffffffffffffffffffff168152602001908152602001600020549050600060328211610266576000610274565b60328261027391906105fd565b5b9050806000808573ffffffffffffffffffffffffffffffffffffffff1673ffffffffffffffffffffffffffffffffffffffff168152602001908152602001600020819055508273ffffffffffffffffffffffffffffffffffffffff167f66ead48cfe0e1d1aa8bad492e906c348dfcfeecbf3b7b2cdf9b1f3cfa42a2945826040516102ff9190610513565b60405180910390a2505050565b60008060008373ffffffffffffffffffffffffffffffffffffffff1673ffffffffffffffffffffffffffffffffffffffff168152602001908152602001600020549050919050565b60008060008473ffffffffffffffffffffffffffffffffffffffff1673ffffffffffffffffffffffffffffffffffffffff16815260200190815260200160002054146103d5576040517f08c379a00000000000000000000000000000000000000000000000000000000081526004016103cc9061068e565b60405180910390fd5b806000808473ffffffffffffffffffffffffffffffffffffffff1673ffffffffffffffffffffffffffffffffffffffff168152602001908152602001600020819055508173ffffffffffffffffffffffffffffffffffffffff167f66ead48cfe0e1d1aa8bad492e906c348dfcfeecbf3b7b2cdf9b1f3cfa42a29458260405161045e9190610513565b60405180910390a25050565b600080fd5b600073ffffffffffffffffffffffffffffffffffffffff82169050919050565b600061049a8261046f565b9050919050565b6104aa8161048f565b81146104b557600080fd5b50565b6000813590506104c7816104a1565b92915050565b6000602082840312156104e3576104e261046a565b5b60006104f1848285016104b8565b91505092915050565b6000819050919050565b61050d816104fa565b82525050565b60006020820190506105286000830184610504565b92915050565b610537816104fa565b811461054257600080fd5b50565b6000813590506105548161052e565b92915050565b600080604083850312156105715761057061046a565b5b600061057f858286016104b8565b925050602061059085828601610545565b9150509250929050565b7f4e487b7100000000000000000000000000000000000000000000000000000000600052601160045260246000fd5b60006105d4826104fa565b91506105df836104fa565b92508282019050808211156105f7576105f661059a565b5b92915050565b6000610608826104fa565b9150610613836104fa565b925082820390508181111561062b5761062a61059a565b5b92915050565b600082825260208201905092915050565b7f5573657220616c726561647920696e697469616c697a65640000000000000000600082015250565b6000610678601883610631565b915061068382610642565b602082019050919050565b600060208201905081810360008301526106a78161066b565b905091905056fea2646970667358221220773cbb52701e2c3dd7f302db2abaaedb30c52e55fec2a65f4ffb7819b3bd050a64736f6c63430008140033",
  "linkReferences": {},
  "deployedLinkReferences": {}
}