{
  "_format": "hh-sol-artifact-1",
  "contractName": "DisputeResolution",
  "sourceName": "contracts/DisputeResolution.sol",
  "abi": [
    {
      "inputs": [],
      "stateMutability": "nonpayable",
      "type": "constructor"
    },
    {
      "inputs": [
        {
          "internalType": "address",
          "name": "owner",
          "type": "address"
        }
      ],
      "name": "OwnableInvalidOwner",
      "type": "error"
    },
    {
      "inputs": [
        {
          "internalType": "address",
          "name": "account",
          "type": "address"
        }
      ],
      "name": "OwnableUnauthorizedAccount",
      "type": "error"
    },
    {
      "anonymous": false,
      "inputs": [
        {
          "indexed": true,
          "internalType": "uint256",
          "name": "disputeId",
          "type": "uint256"
        },
        {
          "indexed": true,
          "internalType": "address",
          "name": "loanContract",
          "type": "address"
        },
        {
          "indexed": true,
          "internalType": "address",
          "name": "complainant",
          "type": "address"
        }
      ],
      "name": "DisputeOpened",
      "type": "event"
    },
    {
      "anonymous": false,
      "inputs": [
        {
          "indexed": true,
          "internalType": "uint256",
          "name": "disputeId",
          "type": "uint256"
        },
        {
          "indexed": true,
          "internalType": "address",
          "name": "winner",
          "type": "address"
        }
      ],
      "name": "DisputeResolved",
      "type": "event"
    },
    {
      "anonymous": false,
      "inputs": [
        {
          "indexed": true,
          "internalType": "address",
          "name": "previousOwner",
          "type": "address"
        },
        {
          "indexed": true,
          "internalType": "address",
          "name": "newOwner",
          "type": "address"
        }
      ],
      "name": "OwnershipTransferred",
      "type": "event"
    },
    {
      "inputs": [
        {
          "internalType": "uint256",
          "name": "",
          "type": "uint256"
        }
      ],
      "name": "disputes",
      "outputs": [
        {
          "internalType": "uint256",
          "name": "id",
          "type": "uint256"
        },
        {
          "internalType": "address",
          "name": "loanContract",
          "type": "address"
        },
        {
          "internalType": "address",
          "name": "complainant",
          "type": "address"
        },
        {
          "internalType": "address",
          "name": "defendant",
          "type": "address"
        },
        {
          "internalType": "string",
          "name": "reason",
          "type": "string"
        },
        {
          "internalType": "enum DisputeResolution.DisputeStatus",
          "name": "status",
          "type": "uint8"
        }
      ],
      "stateMutability": "view",
      "type": "function"
    },
    {
      "inputs": [
        {
          "internalType": "address",
          "name": "_loanContract",
          "type": "address"
        },
        {
          "internalType": "address",
          "name": "_defendant",
          "type": "address"
        },
        {
          "internalType": "string",
          "name": "_reason",
          "type": "string"
        }
      ],
      "name": "initiateDispute",
      "outputs": [],
      "stateMutability": "nonpayable",
      "type": "function"
    },
    {
      "inputs": [],
      "name": "nextDisputeId",
      "outputs": [
        {
          "internalType": "uint256",
          "name": "",
          "type": "uint256"
        }
      ],
      "stateMutability": "view",
      "type": "function"
    },
    {
      "inputs": [],
      "name": "owner",
      "outputs": [
        {
          "internalType": "address",
          "name": "",
          "type": "address"
        }
      ],
      "stateMutability": "view",
      "type": "function"
    },
    {
      "inputs": [],
      "name": "renounceOwnership",
      "outputs": [],
      "stateMutability": "nonpayable",
      "type": "function"
    },
    {
      "inputs": [
        {
          "internalType": "uint256",
          "name": "_disputeId",
          "type": "uint256"
        },
        {
          "internalType": "address",
          "name": "_winner",
          "type": "address"
        }
      ],
      "name": "resolveDispute",
      "outputs": [],
      "stateMutability": "nonpayable",
      "type": "function"
    },
    {
      "inputs": [
        {
          "internalType": "address",
          "name": "newOwner",
          "type": "address"
        }
      ],
      "name": "transferOwnership",
      "outputs": [],
      "stateMutability": "nonpayable",
      "type": "function"
    }
  ],
  "bytecode": "0x608060405234801561001057600080fd5b5033600073ffffffffffffffffffffffffffffffffffffffff168173ffffffffffffffffffffffffffffffffffffffff16036100845760006040517f1e4fbdf700000000000000000000000000000000000000000000000000000000815260040161007b919061019e565b60405180910390fd5b6100938161009960201b60201c565b506101b9565b60008060009054906101000a900473ffffffffffffffffffffffffffffffffffffffff169050816000806101000a81548173ffffffffffffffffffffffffffffffffffffffff021916908373ffffffffffffffffffffffffffffffffffffffff1602179055508173ffffffffffffffffffffffffffffffffffffffff168173ffffffffffffffffffffffffffffffffffffffff167f8be0079c531659141344cd1fd0a4f28419497f9722a3daafe3b4186f6b6457e060405160405180910390a35050565b600073ffffffffffffffffffffffffffffffffffffffff82169050919050565b60006101888261015d565b9050919050565b6101988161017d565b82525050565b60006020820190506101b3600083018461018f565b92915050565b61120280620001c96000396000f3fe608060405234801561001057600080fd5b506004361061007d5760003560e01c806357120c941161005b57806357120c94146100f1578063715018a61461010d5780638da5cb5b14610117578063f2fde38b146101355761007d565b80630db39934146100825780630e33599d146100a0578063564a565d146100bc575b600080fd5b61008a610151565b60405161009791906108e9565b60405180910390f35b6100ba60048036038101906100b591906109a2565b610157565b005b6100d660048036038101906100d191906109e2565b610350565b6040516100e896959493929190610b25565b60405180910390f35b61010b60048036038101906101069190610cc2565b610481565b005b6101156106ba565b005b61011f6106ce565b60405161012c9190610d31565b60405180910390f35b61014f600480360381019061014a9190610d4c565b6106f7565b005b60025481565b61015f61077d565b60006001600084815260200190815260200160002090506000600181111561018a57610189610aae565b5b8160050160009054906101000a900460ff1660018111156101ae576101ad610aae565b5b146101ee576040517f08c379a00000000000000000000000000000000000000000000000000000000081526004016101e590610dc5565b60405180910390fd5b8060020160009054906101000a900473ffffffffffffffffffffffffffffffffffffffff1673ffffffffffffffffffffffffffffffffffffffff168273ffffffffffffffffffffffffffffffffffffffff16148061029b57508060030160009054906101000a900473ffffffffffffffffffffffffffffffffffffffff1673ffffffffffffffffffffffffffffffffffffffff168273ffffffffffffffffffffffffffffffffffffffff16145b6102da576040517f08c379a00000000000000000000000000000000000000000000000000000000081526004016102d190610e57565b60405180910390fd5b60018160050160006101000a81548160ff0219169083600181111561030257610301610aae565b5b02179055508173ffffffffffffffffffffffffffffffffffffffff16837ff77ceb5e091d2da041bc760667f9d5fe7a756949eaf29250ad0e60ca6f4c27d960405160405180910390a3505050565b60016020528060005260406000206000915090508060000154908060010160009054906101000a900473ffffffffffffffffffffffffffffffffffffffff16908060020160009054906101000a900473ffffffffffffffffffffffffffffffffffffffff16908060030160009054906101000a900473ffffffffffffffffffffffffffffffffffffffff16908060040180546103eb90610ea6565b80601f016020809104026020016040519081016040528092919081815260200182805461041790610ea6565b80156104645780601f1061043957610100808354040283529160200191610464565b820191906000526020600020905b81548152906001019060200180831161044757829003601f168201915b5050505050908060050160009054906101000a900460ff16905086565b60006002600081548092919061049690610f06565b9190505590506040518060c001604052808281526020018573ffffffffffffffffffffffffffffffffffffffff1681526020013373ffffffffffffffffffffffffffffffffffffffff1681526020018473ffffffffffffffffffffffffffffffffffffffff1681526020018381526020016000600181111561051b5761051a610aae565b5b815250600160008381526020019081526020016000206000820151816000015560208201518160010160006101000a81548173ffffffffffffffffffffffffffffffffffffffff021916908373ffffffffffffffffffffffffffffffffffffffff16021790555060408201518160020160006101000a81548173ffffffffffffffffffffffffffffffffffffffff021916908373ffffffffffffffffffffffffffffffffffffffff16021790555060608201518160030160006101000a81548173ffffffffffffffffffffffffffffffffffffffff021916908373ffffffffffffffffffffffffffffffffffffffff160217905550608082015181600401908161062591906110fa565b5060a08201518160050160006101000a81548160ff0219169083600181111561065157610650610aae565b5b02179055509050503373ffffffffffffffffffffffffffffffffffffffff168473ffffffffffffffffffffffffffffffffffffffff16827f14c22426ac908f53fc489c6924ea05845cab0e8b02b8b3a14fda7e384882ce3b60405160405180910390a450505050565b6106c261077d565b6106cc6000610804565b565b60008060009054906101000a900473ffffffffffffffffffffffffffffffffffffffff16905090565b6106ff61077d565b600073ffffffffffffffffffffffffffffffffffffffff168173ffffffffffffffffffffffffffffffffffffffff16036107715760006040517f1e4fbdf70000000000000000000000000000000000000000000000000000000081526004016107689190610d31565b60405180910390fd5b61077a81610804565b50565b6107856108c8565b73ffffffffffffffffffffffffffffffffffffffff166107a36106ce565b73ffffffffffffffffffffffffffffffffffffffff1614610802576107c66108c8565b6040517f118cdaa70000000000000000000000000000000000000000000000000000000081526004016107f99190610d31565b60405180910390fd5b565b60008060009054906101000a900473ffffffffffffffffffffffffffffffffffffffff169050816000806101000a81548173ffffffffffffffffffffffffffffffffffffffff021916908373ffffffffffffffffffffffffffffffffffffffff1602179055508173ffffffffffffffffffffffffffffffffffffffff168173ffffffffffffffffffffffffffffffffffffffff167f8be0079c531659141344cd1fd0a4f28419497f9722a3daafe3b4186f6b6457e060405160405180910390a35050565b600033905090565b6000819050919050565b6108e3816108d0565b82525050565b60006020820190506108fe60008301846108da565b92915050565b6000604051905090565b600080fd5b600080fd5b610921816108d0565b811461092c57600080fd5b50565b60008135905061093e81610918565b92915050565b600073ffffffffffffffffffffffffffffffffffffffff82169050919050565b600061096f82610944565b9050919050565b61097f81610964565b811461098a57600080fd5b50565b60008135905061099c81610976565b92915050565b600080604083850312156109b9576109b861090e565b5b60006109c78582860161092f565b92505060206109d88582860161098d565b9150509250929050565b6000602082840312156109f8576109f761090e565b5b6000610a068482850161092f565b91505092915050565b610a1881610964565b82525050565b600081519050919050565b600082825260208201905092915050565b60005b83811015610a58578082015181840152602081019050610a3d565b60008484015250505050565b6000601f19601f8301169050919050565b6000610a8082610a1e565b610a8a8185610a29565b9350610a9a818560208601610a3a565b610aa381610a64565b840191505092915050565b7f4e487b7100000000000000000000000000000000000000000000000000000000600052602160045260246000fd5b60028110610aee57610aed610aae565b5b50565b6000819050610aff82610add565b919050565b6000610b0f82610af1565b9050919050565b610b1f81610b04565b82525050565b600060c082019050610b3a60008301896108da565b610b476020830188610a0f565b610b546040830187610a0f565b610b616060830186610a0f565b8181036080830152610b738185610a75565b9050610b8260a0830184610b16565b979650505050505050565b600080fd5b600080fd5b7f4e487b7100000000000000000000000000000000000000000000000000000000600052604160045260246000fd5b610bcf82610a64565b810181811067ffffffffffffffff82111715610bee57610bed610b97565b5b80604052505050565b6000610c01610904565b9050610c0d8282610bc6565b919050565b600067ffffffffffffffff821115610c2d57610c2c610b97565b5b610c3682610a64565b9050602081019050919050565b82818337600083830152505050565b6000610c65610c6084610c12565b610bf7565b905082815260208101848484011115610c8157610c80610b92565b5b610c8c848285610c43565b509392505050565b600082601f830112610ca957610ca8610b8d565b5b8135610cb9848260208601610c52565b91505092915050565b600080600060608486031215610cdb57610cda61090e565b5b6000610ce98682870161098d565b9350506020610cfa8682870161098d565b925050604084013567ffffffffffffffff811115610d1b57610d1a610913565b5b610d2786828701610c94565b9150509250925092565b6000602082019050610d466000830184610a0f565b92915050565b600060208284031215610d6257610d6161090e565b5b6000610d708482850161098d565b91505092915050565b7f4469737075746520697320616c7265616479207265736f6c7665640000000000600082015250565b6000610daf601b83610a29565b9150610dba82610d79565b602082019050919050565b60006020820190508181036000830152610dde81610da2565b9050919050565b7f57696e6e6572206d757374206265206120706172747920746f2074686520646960008201527f7370757465000000000000000000000000000000000000000000000000000000602082015250565b6000610e41602583610a29565b9150610e4c82610de5565b604082019050919050565b60006020820190508181036000830152610e7081610e34565b9050919050565b7f4e487b7100000000000000000000000000000000000000000000000000000000600052602260045260246000fd5b60006002820490506001821680610ebe57607f821691505b602082108103610ed157610ed0610e77565b5b50919050565b7f4e487b7100000000000000000000000000000000000000000000000000000000600052601160045260246000fd5b6000610f11826108d0565b91507fffffffffffffffffffffffffffffffffffffffffffffffffffffffffffffffff8203610f4357610f42610ed7565b5b600182019050919050565b60008190508160005260206000209050919050565b60006020601f8301049050919050565b600082821b905092915050565b600060088302610fb07fffffffffffffffffffffffffffffffffffffffffffffffffffffffffffffffff82610f73565b610fba8683610f73565b95508019841693508086168417925050509392505050565b6000819050919050565b6000610ff7610ff2610fed846108d0565b610fd2565b6108d0565b9050919050565b6000819050919050565b61101183610fdc565b61102561101d82610ffe565b848454610f80565b825550505050565b600090565b61103a61102d565b611045818484611008565b505050565b5b818110156110695761105e600082611032565b60018101905061104b565b5050565b601f8211156110ae5761107f81610f4e565b61108884610f63565b81016020851015611097578190505b6110ab6110a385610f63565b83018261104a565b50505b505050565b600082821c905092915050565b60006110d1600019846008026110b3565b1980831691505092915050565b60006110ea83836110c0565b9150826002028217905092915050565b61110382610a1e565b67ffffffffffffffff81111561111c5761111b610b97565b5b6111268254610ea6565b61113182828561106d565b600060209050601f8311600181146111645760008415611152578287015190505b61115c85826110de565b8655506111c4565b601f19841661117286610f4e565b60005b8281101561119a57848901518255600182019150602085019450602081019050611175565b868310156111b757848901516111b3601f8916826110c0565b8355505b6001600288020188555050505b50505050505056fea264697066735822122083ec22d1cbe8ac35b23ea75ea72641eab0fc21dc6722c9e0d0fab939aa12464164736f6c63430008140033",
  "linkReferences": {},
  "deployedLinkReferences": {}
}